{
  "contractName": "mortal",
  "abi": [
    {
      "constant": false,
      "inputs": [],
      "name": "kill",
      "outputs": [],
      "payable": false,
      "stateMutability": "nonpayable",
      "type": "function"
    },
    {
      "inputs": [],
      "payable": false,
      "stateMutability": "nonpayable",
      "type": "constructor"
    }
  ],
  "bytecode": "0x6060604052341561000f57600080fd5b336000806101000a81548173ffffffffffffffffffffffffffffffffffffffff021916908373ffffffffffffffffffffffffffffffffffffffff1602179055506101128061005e6000396000f300606060405260043610603f576000357c0100000000000000000000000000000000000000000000000000000000900463ffffffff16806341c0e1b5146044575b600080fd5b3415604e57600080fd5b60546056565b005b6000809054906101000a900473ffffffffffffffffffffffffffffffffffffffff1673ffffffffffffffffffffffffffffffffffffffff163373ffffffffffffffffffffffffffffffffffffffff16141560e4576000809054906101000a900473ffffffffffffffffffffffffffffffffffffffff1673ffffffffffffffffffffffffffffffffffffffff16ff5b5600a165627a7a7230582057945ebead971bf0a870b908297b62233fc576cb2b5df621f9fbe97c04fed9770029",
  "source": "pragma solidity ^0.4.15;\n\ncontract mortal {\n    /* Define variable owner of the type address */\n    address owner;\n\n    /* This function is executed at initialization and sets the owner of the contract */\n    function mortal() { owner = msg.sender; }\n\n    /* Function to recover the funds on the contract */\n    function kill() { if (msg.sender == owner) selfdestruct(owner); }\n}\n\ncontract TradeData is mortal {\n  struct Trade {    \n      string internalTradeID;\n      uint utcTimestamp;\n      string traderName;\n      int sizeBig;\n      uint priceBig;\n      string counterparty;\n      string client; \n  }\n\n  event NewTradeEvent(uint tradeID);\n\n  string testVal;\n\n  uint public numTrades;\n  mapping (uint => Trade) public trades;\n\n  function addTrade(string internalTradeID, uint utcTimestamp, string traderName, int sizeBig, uint priceBig, string counterparty, string client) public returns(uint) {\n    // Only owner\n    if (msg.sender != owner) return;\n    var trade = trades[numTrades];\n    uint tradeID = numTrades;\n    numTrades++;  \n    trade.internalTradeID = internalTradeID;\n    trade.utcTimestamp = utcTimestamp;\n    trade.traderName = traderName;\n    trade.sizeBig = sizeBig;\n    trade.priceBig = priceBig;\n    trade.counterparty = counterparty;\n    trade.client = client;\n    NewTradeEvent(tradeID);\n    return tradeID;\n  }\n\n  function getTradeByID(uint tradeID) public constant returns (string, uint, string, int, uint, string, string) {\n    Trade storage trade = trades[tradeID];\n    return (trade.internalTradeID, trade.utcTimestamp, trade.traderName, trade.sizeBig, trade.priceBig, trade.counterparty, trade.client);\n  }\n\n  function getLastTradeID() public constant returns (uint retVal) {\n    return numTrades - 1;\n  }\n}",
  "sourcePath": "/Users/andreianisimov/projects/8base/quorum-example/contracts/TradeData.sol",
  "compiler": {
    "name": "solc",
    "version": "0.4.18+commit.9cf6e910.Emscripten.clang"
  },
  "schemaVersion": "1.0.1",
  "updatedAt": "2017-11-18T21:22:48.553Z"
}