{
  "contractName": "TradeData",
  "abi": [
    {
      "constant": false,
      "inputs": [
        {
          "name": "input",
          "type": "string"
        }
      ],
      "name": "writeTest",
      "outputs": [],
      "payable": false,
      "stateMutability": "nonpayable",
      "type": "function"
    },
    {
      "constant": true,
      "inputs": [],
      "name": "getLastTradeID",
      "outputs": [
        {
          "name": "retVal",
          "type": "uint256"
        }
      ],
      "payable": false,
      "stateMutability": "view",
      "type": "function"
    },
    {
      "constant": true,
      "inputs": [
        {
          "name": "",
          "type": "uint256"
        }
      ],
      "name": "trades",
      "outputs": [
        {
          "name": "internalTradeID",
          "type": "string"
        },
        {
          "name": "utcTimestamp",
          "type": "uint256"
        },
        {
          "name": "traderName",
          "type": "string"
        },
        {
          "name": "sizeBig",
          "type": "int256"
        },
        {
          "name": "priceBig",
          "type": "uint256"
        },
        {
          "name": "counterparty",
          "type": "string"
        },
        {
          "name": "client",
          "type": "string"
        }
      ],
      "payable": false,
      "stateMutability": "view",
      "type": "function"
    },
    {
      "constant": false,
      "inputs": [
        {
          "name": "tradeID",
          "type": "uint256"
        }
      ],
      "name": "kill",
      "outputs": [
        {
          "name": "",
          "type": "string"
        },
        {
          "name": "",
          "type": "uint256"
        },
        {
          "name": "",
          "type": "string"
        },
        {
          "name": "",
          "type": "int256"
        },
        {
          "name": "",
          "type": "uint256"
        },
        {
          "name": "",
          "type": "string"
        }
      ],
      "payable": false,
      "stateMutability": "nonpayable",
      "type": "function"
    },
    {
      "constant": false,
      "inputs": [
        {
          "name": "internalTradeID",
          "type": "string"
        },
        {
          "name": "utcTimestamp",
          "type": "uint256"
        },
        {
          "name": "traderName",
          "type": "string"
        },
        {
          "name": "sizeBig",
          "type": "int256"
        },
        {
          "name": "priceBig",
          "type": "uint256"
        },
        {
          "name": "counterparty",
          "type": "string"
        },
        {
          "name": "client",
          "type": "string"
        }
      ],
      "name": "addTrade",
      "outputs": [
        {
          "name": "",
          "type": "uint256"
        },
        {
          "name": "",
          "type": "uint256"
        },
        {
          "name": "",
          "type": "string"
        },
        {
          "name": "",
          "type": "int256"
        },
        {
          "name": "",
          "type": "uint256"
        },
        {
          "name": "",
          "type": "string"
        }
      ],
      "payable": false,
      "stateMutability": "nonpayable",
      "type": "function"
    },
    {
      "constant": true,
      "inputs": [
        {
          "name": "tradeID",
          "type": "uint256"
        }
      ],
      "name": "getTradeByID",
      "outputs": [
        {
          "name": "",
          "type": "string"
        },
        {
          "name": "",
          "type": "uint256"
        },
        {
          "name": "",
          "type": "string"
        },
        {
          "name": "",
          "type": "int256"
        },
        {
          "name": "",
          "type": "uint256"
        },
        {
          "name": "",
          "type": "string"
        },
        {
          "name": "",
          "type": "string"
        }
      ],
      "payable": false,
      "stateMutability": "view",
      "type": "function"
    },
    {
      "constant": true,
      "inputs": [
        {
          "name": "internalTradeID",
          "type": "string"
        },
        {
          "name": "utcTimestamp",
          "type": "uint256"
        },
        {
          "name": "traderName",
          "type": "string"
        },
        {
          "name": "sizeBig",
          "type": "int256"
        },
        {
          "name": "priceBig",
          "type": "uint256"
        },
        {
          "name": "counterpartyName",
          "type": "string"
        }
      ],
      "name": "readTest",
      "outputs": [
        {
          "name": "retVal",
          "type": "string"
        }
      ],
      "payable": false,
      "stateMutability": "view",
      "type": "function"
    },
    {
      "anonymous": false,
      "inputs": [
        {
          "indexed": false,
          "name": "internalTradeID",
          "type": "string"
        },
        {
          "name": "utcTimestamp",
          "type": "uint256"
        },
        {
          "name": "traderName",
          "type": "string"
        },
        {
          "name": "sizeBig",
          "type": "int256"
        },
        {
          "name": "priceBig",
          "type": "uint256"
        },
        {
          "name": "counterpartyName",
          "type": "string"
        }
      ],
      "name": "numTrades",
      "type": "function",
      "constant": true,
      "outputs": [
        {
          "name": "",
          "type": "uint256"
        }
      ],
      "payable": false,
      "stateMutability": "view"
    },
    {
      "anonymous": false,
      "inputs": [
        {
          "indexed": false,
          "name": "tradeID",
          "type": "uint256"
        }
      ],
      "name": "NewTradeEvent",
      "type": "event"
    }
  ],
  "bytecode": "0x6060604052336000806101000a81548173ffffffffffffffffffffffffffffffffffffffff021916908373ffffffffffffffffffffffffffffffffffffffff160217905550610e5b806100536000396000f30060606040526004361061008e576000357c0100000000000000000000000000000000000000000000000000000000900463ffffffff168063043adfb3146100935780630b508de5146100f05780631e6c598e1461011957806341c0e1b5146103825780634769c97714610397578063497afbf4146104ec57806363c65dd5146106e1578063a1e2c1051461076f575b600080fd5b341561009e57600080fd5b6100ee600480803590602001908201803590602001908080601f01602080910402602001604051908101604052809392919081815260200183838082843782019150505050505091905050610798565b005b34156100fb57600080fd5b6101036107b2565b6040518082815260200191505060405180910390f35b341561012457600080fd5b61013a60048080359060200190919050506107bf565b604051808060200188815260200180602001878152602001868152602001806020018060200185810385528c8181546001816001161561010002031660029004815260200191508054600181600116156101000203166002900480156101e15780601f106101b6576101008083540402835291602001916101e1565b820191906000526020600020905b8154815290600101906020018083116101c457829003601f168201915b505085810384528a8181546001816001161561010002031660029004815260200191508054600181600116156101000203166002900480156102645780601f1061023957610100808354040283529160200191610264565b820191906000526020600020905b81548152906001019060200180831161024757829003601f168201915b50508581038352878181546001816001161561010002031660029004815260200191508054600181600116156101000203166002900480156102e75780601f106102bc576101008083540402835291602001916102e7565b820191906000526020600020905b8154815290600101906020018083116102ca57829003601f168201915b505085810382528681815460018160011615610100020316600290048152602001915080546001816001161561010002031660029004801561036a5780601f1061033f5761010080835404028352916020019161036a565b820191906000526020600020905b81548152906001019060200180831161034d57829003601f168201915b50509b50505050505050505050505060405180910390f35b341561038d57600080fd5b6103956107fd565b005b34156103a257600080fd5b6104d6600480803590602001908201803590602001908080601f0160208091040260200160405190810160405280939291908181526020018383808284378201915050505050509190803590602001909190803590602001908201803590602001908080601f0160208091040260200160405190810160405280939291908181526020018383808284378201915050505050509190803590602001909190803590602001909190803590602001908201803590602001908080601f0160208091040260200160405190810160405280939291908181526020018383808284378201915050505050509190803590602001908201803590602001908080601f0160208091040260200160405190810160405280939291908181526020018383808284378201915050505050509190505061088e565b6040518082815260200191505060405180910390f35b34156104f757600080fd5b61050d60048080359060200190919050506109e3565b604051808060200188815260200180602001878152602001868152602001806020018060200185810385528c818151815260200191508051906020019080838360005b8381101561056b578082015181840152602081019050610550565b50505050905090810190601f1680156105985780820380516001836020036101000a031916815260200191505b5085810384528a818151815260200191508051906020019080838360005b838110156105d15780820151818401526020810190506105b6565b50505050905090810190601f1680156105fe5780820380516001836020036101000a031916815260200191505b50858103835287818151815260200191508051906020019080838360005b8381101561063757808201518184015260208101905061061c565b50505050905090810190601f1680156106645780820380516001836020036101000a031916815260200191505b50858103825286818151815260200191508051906020019080838360005b8381101561069d578082015181840152602081019050610682565b50505050905090810190601f1680156106ca5780820380516001836020036101000a031916815260200191505b509b50505050505050505050505060405180910390f35b34156106ec57600080fd5b6106f4610cc8565b6040518080602001828103825283818151815260200191508051906020019080838360005b83811015610734578082015181840152602081019050610719565b50505050905090810190601f1680156107615780820380516001836020036101000a031916815260200191505b509250505060405180910390f35b341561077a57600080fd5b610782610d70565b6040518082815260200191505060405180910390f35b80600190805190602001906107ae929190610d76565b5050565b6000600160025403905090565b600360205280600052604060002060009150905080600001908060010154908060020190806003015490806004015490806005019080600601905087565b6000809054906101000a900473ffffffffffffffffffffffffffffffffffffffff1673ffffffffffffffffffffffffffffffffffffffff163373ffffffffffffffffffffffffffffffffffffffff16141561088c576000809054906101000a900473ffffffffffffffffffffffffffffffffffffffff1673ffffffffffffffffffffffffffffffffffffffff16ff5b565b60008060008060009054906101000a900473ffffffffffffffffffffffffffffffffffffffff1673ffffffffffffffffffffffffffffffffffffffff163373ffffffffffffffffffffffffffffffffffffffff161415156108ee576109d6565b6003600060025481526020019081526020016000209150600254905060026000815480929190600101919050555089826000019080519060200190610934929190610d76565b5088826001018190555087826002019080519060200190610956929190610d76565b5086826003018190555085826004018190555084826005019080519060200190610981929190610d76565b508382600601908051906020019061099a929190610d76565b507f86e31e6bbe2f690cbdb74c631a08fffc8993cc32281cd4cd9e12a6c089e7d647816040518082815260200191505060405180910390a18092505b5050979650505050505050565b6109eb610df6565b60006109f5610df6565b600080610a00610df6565b610a08610df6565b6000600360008a8152602001908152602001600020905080600001816001015482600201836003015484600401548560050186600601868054600181600116156101000203166002900480601f016020809104026020016040519081016040528092919081815260200182805460018160011615610100020316600290048015610ad35780601f10610aa857610100808354040283529160200191610ad3565b820191906000526020600020905b815481529060010190602001808311610ab657829003601f168201915b50505050509650848054600181600116156101000203166002900480601f016020809104026020016040519081016040528092919081815260200182805460018160011615610100020316600290048015610b6f5780601f10610b4457610100808354040283529160200191610b6f565b820191906000526020600020905b815481529060010190602001808311610b5257829003601f168201915b50505050509450818054600181600116156101000203166002900480601f016020809104026020016040519081016040528092919081815260200182805460018160011615610100020316600290048015610c0b5780601f10610be057610100808354040283529160200191610c0b565b820191906000526020600020905b815481529060010190602001808311610bee57829003601f168201915b50505050509150808054600181600116156101000203166002900480601f016020809104026020016040519081016040528092919081815260200182805460018160011615610100020316600290048015610ca75780601f10610c7c57610100808354040283529160200191610ca7565b820191906000526020600020905b815481529060010190602001808311610c8a57829003601f168201915b50505050509050975097509750975097509750975050919395979092949650565b610cd0610df6565b60018054600181600116156101000203166002900480601f016020809104026020016040519081016040528092919081815260200182805460018160011615610100020316600290048015610d665780601f10610d3b57610100808354040283529160200191610d66565b820191906000526020600020905b815481529060010190602001808311610d4957829003601f168201915b5050505050905090565b60025481565b828054600181600116156101000203166002900490600052602060002090601f016020900481019282601f10610db757805160ff1916838001178555610de5565b82800160010185558215610de5579182015b82811115610de4578251825591602001919060010190610dc9565b5b509050610df29190610e0a565b5090565b602060405190810160405280600081525090565b610e2c91905b80821115610e28576000816000905550600101610e10565b5090565b905600a165627a7a72305820d504a97c120918d6a0699e6fcd97d7e7eff5ce39265c7f3fa7263f7ca71e14420029",
  "source": "pragma solidity ^0.4.15;\n\ncontract mortal {\n    /* Define variable owner of the type address */\n    address owner;\n\n    /* This function is executed at initialization and sets the owner of the contract */\n    function mortal() { owner = msg.sender; }\n\n    /* Function to recover the funds on the contract */\n    function kill() { if (msg.sender == owner) selfdestruct(owner); }\n}\n\ncontract TradeData is mortal {\n  struct Trade {    \n      string internalTradeID;\n      uint utcTimestamp;\n      string traderName;\n      int sizeBig;\n      uint priceBig;\n      string counterparty;\n      string client; \n  }\n\n  event NewTradeEvent(uint tradeID);\n\n  string testVal;\n\n  uint public numTrades;\n  mapping (uint => Trade) public trades;\n\n  function addTrade(string internalTradeID, uint utcTimestamp, string traderName, int sizeBig, uint priceBig, string counterparty, string client) public returns(uint) {\n    // Only owner\n    if (msg.sender != owner) return;\n    var trade = trades[numTrades];\n    uint tradeID = numTrades;\n    numTrades++;  \n    trade.internalTradeID = internalTradeID;\n    trade.utcTimestamp = utcTimestamp;\n    trade.traderName = traderName;\n    trade.sizeBig = sizeBig;\n    trade.priceBig = priceBig;\n    trade.counterparty = counterparty;\n    trade.client = client;\n    NewTradeEvent(tradeID);\n    return tradeID;\n  }\n\n  function getTradeByID(uint tradeID) public constant returns (string, uint, string, int, uint, string, string) {\n    Trade storage trade = trades[tradeID];\n    return (trade.internalTradeID, trade.utcTimestamp, trade.traderName, trade.sizeBig, trade.priceBig, trade.counterparty, trade.client);\n  }\n\n  function getLastTradeID() public constant returns (uint retVal) {\n    return numTrades - 1;\n  }\n\n  function writeTest(string input) public {\n    testVal = input;\n  }\n\n  function readTest() public constant returns (string retVal) {\n    return testVal;\n  }\n}",
  "sourcePath": "/Users/andreianisimov/projects/8base/private-chains-comp/contracts/TradeData.sol",
  "compiler": {
    "name": "solc",
    "version": "0.4.18+commit.9cf6e910.Emscripten.clang"
  },
  "schemaVersion": "1.0.1",
  "updatedAt": "2017-11-17T00:07:28.115Z"
}